{"abi":[{"type":"function","name":"decrementCount","inputs":[],"outputs":[{"name":"","type":"uint256","internalType":"uint256"}],"stateMutability":"nonpayable"},{"type":"function","name":"execute","inputs":[{"name":"account","type":"address","internalType":"address"},{"name":"salt","type":"bytes32","internalType":"bytes32"},{"name":"mode","type":"bytes32","internalType":"bytes32"},{"name":"data","type":"bytes","internalType":"bytes"}],"outputs":[{"name":"returnData","type":"bytes[]","internalType":"bytes[]"}],"stateMutability":"nonpayable"},{"type":"function","name":"getCount","inputs":[],"outputs":[{"name":"","type":"uint256","internalType":"uint256"}],"stateMutability":"view"},{"type":"function","name":"getSalt","inputs":[{"name":"owner","type":"address","internalType":"address"}],"outputs":[{"name":"","type":"bytes32","internalType":"bytes32"}],"stateMutability":"view"},{"type":"function","name":"incrementCount","inputs":[],"outputs":[{"name":"","type":"uint256","internalType":"uint256"}],"stateMutability":"nonpayable"},{"type":"function","name":"isModuleType","inputs":[{"name":"moduleTypeId","type":"uint256","internalType":"uint256"}],"outputs":[{"name":"","type":"bool","internalType":"bool"}],"stateMutability":"pure"},{"type":"function","name":"onInstall","inputs":[{"name":"data","type":"bytes","internalType":"bytes"}],"outputs":[],"stateMutability":"nonpayable"},{"type":"function","name":"onUninstall","inputs":[{"name":"data","type":"bytes","internalType":"bytes"}],"outputs":[],"stateMutability":"nonpayable"},{"type":"function","name":"resetCount","inputs":[],"outputs":[],"stateMutability":"nonpayable"},{"type":"function","name":"setCount","inputs":[{"name":"count","type":"uint256","internalType":"uint256"}],"outputs":[],"stateMutability":"nonpayable"},{"type":"event","name":"ERC7579ExecutorModuleInstalled","inputs":[{"name":"module","type":"address","indexed":true,"internalType":"address"},{"name":"account","type":"address","indexed":false,"internalType":"address"}],"anonymous":false},{"type":"event","name":"ERC7579ExecutorModuleUninstalled","inputs":[{"name":"module","type":"address","indexed":true,"internalType":"address"},{"name":"account","type":"address","indexed":false,"internalType":"address"}],"anonymous":false},{"type":"event","name":"ERC7579ExecutorOperationExecuted","inputs":[{"name":"account","type":"address","indexed":true,"internalType":"address"},{"name":"salt","type":"bytes32","indexed":false,"internalType":"bytes32"},{"name":"mode","type":"bytes32","indexed":false,"internalType":"bytes32"},{"name":"executionCalldata","type":"bytes","indexed":false,"internalType":"bytes"}],"anonymous":false},{"type":"error","name":"InvalidInstallData","inputs":[]},{"type":"error","name":"InvalidSalt","inputs":[]},{"type":"error","name":"InvalidSignature","inputs":[]},{"type":"error","name":"InvalidSigner","inputs":[]},{"type":"error","name":"InvalidUninstallData","inputs":[]},{"type":"error","name":"Unauthorized","inputs":[]}],"bytecode":{"object":"0x60a060405234603957600e607f565b6014603d565b6116fe61008c823960805181818161087d01528181610a010152610f4301526116fe90f35b6043565b60405190565b5f80fd5b60018060a01b031690565b90565b606460606068926047565b6052565b6047565b90565b6072906055565b90565b607c90606b565b90565b6086306075565b60805256fe60806040526004361015610013575b6105fe565b61001d5f356100bc565b806359709c45146100b75780636d61fe70146100b25780638a91b0e3146100ad578063a87d942c146100a8578063b7f90f12146100a3578063c11e1bef1461009e578063d14e62b814610099578063e5071b8e14610094578063ecd059611461008f5763fd8952920361000e576105cb565b610596565b61053a565b610507565b61048d565b6102dd565b6102a8565b610240565b61020c565b610151565b60e01c90565b60405190565b5f80fd5b5f80fd5b5f80fd5b60018060a01b031690565b6100e8906100d4565b90565b6100f4816100df565b036100fb57565b5f80fd5b9050359061010c826100eb565b565b9060208282031261012757610124915f016100ff565b90565b6100cc565b90565b6101389061012c565b9052565b919061014f905f6020850194019061012f565b565b346101815761017d61016c61016736600461010e565b61067c565b6101746100c2565b9182918261013c565b0390f35b6100c8565b5f80fd5b5f80fd5b5f80fd5b909182601f830112156101cc5781359167ffffffffffffffff83116101c75760200192600183028401116101c257565b61018e565b61018a565b610186565b90602082820312610202575f82013567ffffffffffffffff81116101fd576101f99201610192565b9091565b6100d0565b6100cc565b5f0190565b3461023b5761022561021f3660046101d1565b90610806565b61022d6100c2565b8061023781610207565b0390f35b6100c8565b3461026f576102596102533660046101d1565b90610984565b6102616100c2565b8061026b81610207565b0390f35b6100c8565b5f91031261027e57565b6100cc565b90565b61028f90610283565b9052565b91906102a6905f60208501940190610286565b565b346102d8576102b8366004610274565b6102d46102c3610ac0565b6102cb6100c2565b91829182610293565b0390f35b6100c8565b3461030d576102ed366004610274565b6103096102f8610b65565b6103006100c2565b91829182610293565b0390f35b6100c8565b61031b8161012c565b0361032257565b5f80fd5b9050359061033382610312565b565b906080828203126103905761034c815f84016100ff565b9261035a8260208501610326565b926103688360408301610326565b92606082013567ffffffffffffffff811161038b576103879201610192565b9091565b6100d0565b6100cc565b5190565b60209181520190565b60200190565b5190565b60209181520190565b90825f9392825e0152565b601f801991011690565b6103e96103f26020936103f7936103e0816103a8565b938480936103ac565b958691016103b5565b6103c0565b0190565b90610405916103ca565b90565b60200190565b9061042261041b83610395565b8092610399565b9081610433602083028401946103a2565b925f915b83831061044657505050505090565b90919293946020610468610462838560019503875289516103fb565b97610408565b9301930191939290610437565b61048a9160208201915f81840391015261040e565b90565b346104c1576104bd6104ac6104a3366004610335565b93929092610b9e565b6104b46100c2565b91829182610475565b0390f35b6100c8565b6104cf81610283565b036104d657565b5f80fd5b905035906104e7826104c6565b565b90602082820312610502576104ff915f016104da565b90565b6100cc565b346105355761051f61051a3660046104e9565b610bce565b6105276100c2565b8061053181610207565b0390f35b6100c8565b3461056a5761054a366004610274565b610566610555610c01565b61055d6100c2565b91829182610293565b0390f35b6100c8565b151590565b61057d9061056f565b9052565b9190610594905f60208501940190610574565b565b346105c6576105c26105b16105ac3660046104e9565b610c61565b6105b96100c2565b91829182610581565b0390f35b6100c8565b346105f9576105db366004610274565b6105e3610ca6565b6105eb6100c2565b806105f581610207565b0390f35b6100c8565b5f80fd5b5f90565b90565b61061d610618610622926100d4565b610606565b6100d4565b90565b61062e90610609565b90565b61063a90610625565b90565b9061064790610631565b5f5260205260405f2090565b5f1c90565b90565b61066761066c91610653565b610658565b90565b610679905461065b565b90565b6106926106979161068b610602565b505f61063d565b61066f565b90565b5090565b90565b6106b56106b06106ba9261069e565b610606565b610283565b90565b5f80fd5b5f80fd5b909392938483116106e55784116106e0576001820201920390565b6106c1565b6106bd565b6bffffffffffffffffffffffff191690565b1b90565b9061070e610715918361069a565b91356106ea565b9060148110610723575b5090565b610741906bffffffffffffffffffffffff19906014036008026106fc565b165f61071f565b60601c90565b61075a61075f91610748565b610609565b90565b61076b9061074e565b90565b9061077890610631565b5f5260205260405f2090565b9061078e90610631565b5f5260205260405f2090565b5f1b90565b906107ab60ff9161079a565b9181191691161790565b6107be9061056f565b90565b90565b906107d96107d46107e0926107b5565b6107c1565b825461079f565b9055565b6107ed906100df565b9052565b9190610804905f602085019401906107e4565b565b61081181839061069a565b61082461081e60146106a1565b91610283565b036108e25761085161084b61087b9361085693906014906108455f926106a1565b926106c5565b90610700565b610762565b6108763361087160019161086c6001869061076e565b610784565b6107c4565b610daa565b7f000000000000000000000000000000000000000000000000000000000000000033906108dd6108cb7f9cb64a7cb7d978b2182159d4fdcc3e98098e0ccb11ffe6da8e378505dc4516ea92610631565b926108d46100c2565b918291826107f1565b0390a2565b5f632f85588960e11b8152806108fa60048201610207565b0390fd5b60ff1690565b61091061091591610653565b6108fe565b90565b6109229054610904565b90565b9190600861094091029161093a60ff846106fc565b926106fc565b9181191691161790565b919061096061095b610968936107b5565b6107c1565b908354610925565b9055565b5f90565b6109829161097c61096c565b9161094a565b565b6109a36109ae926109a9929060149061099d5f926106a1565b926106c5565b90610700565b610762565b336109d66109d06109cb6109c46001869061076e565b8490610784565b610918565b1561056f565b610a66576109fa5f916109f56109ff946109ee610ca6565b600161076e565b610784565b610970565b7f00000000000000000000000000000000000000000000000000000000000000003390610a61610a4f7ff3e7452fb80c9f1feea7ca092ecbbba06b40cf84cfae190b9fa9d5e5a94aece192610631565b92610a586100c2565b918291826107f1565b0390a2565b5f631c12df5f60e11b815280610a7e60048201610207565b0390fd5b5f90565b90610a9090610631565b5f5260205260405f2090565b90565b610aab610ab091610653565b610a9c565b90565b610abd9054610a9f565b90565b610ac8610a82565b50610add610ad860023390610a86565b610ab3565b90565b634e487b7160e01b5f52601160045260245ffd5b610afd90610283565b5f8114610b0b576001900390565b610ae0565b90610b1c5f199161079a565b9181191691161790565b610b3a610b35610b3f92610283565b610606565b610283565b90565b90565b90610b5a610b55610b6192610b26565b610b42565b8254610b10565b9055565b610b6d610a82565b50610b7a60023390610a86565b610b96610b8682610ab3565b91610b9083610af4565b90610b45565b90565b606090565b9192610bbd90610bcb95610bb0610b99565b5084918487919293610edb565b9190919293909192936112ac565b90565b610be390610bde60023390610a86565b610b45565b565b610bee90610283565b5f198114610bfc5760010190565b610ae0565b610c09610a82565b50610c1660023390610a86565b610c32610c2282610ab3565b91610c2c83610be5565b90610b45565b90565b90565b610c4c610c47610c5192610c35565b610606565b610283565b90565b610c5e6002610c38565b90565b610c6961096c565b50610c83610c7d610c78610c54565b610283565b91610283565b1490565b90565b610c9e610c99610ca392610c87565b610606565b610283565b90565b610cc3610cb25f610c8a565b610cbe60023390610a86565b610b45565b565b60601b90565b610cd490610cc5565b90565b610ce090610ccb565b90565b610cef610cf4916100df565b610cd7565b9052565b90565b610d07610d0c91610283565b610cf8565b9052565b601481610d23610d2b9360209695610ce3565b018092610cfb565b0190565b634e487b7160e01b5f52604160045260245ffd5b90610d4d906103c0565b810190811067ffffffffffffffff821117610d6757604052565b610d2f565b60200190565b610d7b9061012c565b90565b610d8790610653565b90565b90610d9f610d9a610da692610d72565b610d7e565b8254610b10565b9055565b610dfc90610df781610ddd4291610dce610dc26100c2565b93849260208401610d10565b60208201810382520382610d43565b610def610de9826103a8565b91610d6c565b20915f61063d565b610d8a565b565b36905f90565b90565b610e1b610e16610e2092610e04565b610606565b610283565b90565b91565b90565b610e35610e3a9161012c565b610e26565b9052565b905090565b90825f939282370152565b909182610e5e81610e6593610e3e565b8093610e43565b0190565b601493610e9a6020610ea9999795610e928886610e8a8598610ea29a610ce3565b018092610e29565b018092610e29565b018092610ce3565b0191610e4e565b90565b634e487b7160e01b5f52602160045260245ffd5b60041115610eca57565b610eac565b90610ed982610ec0565b565b9192610fa890610fa09695610eee610dfe565b905050610f34610f2e610f18610f128585604190610f0c5f92610e07565b926106c5565b90610e23565b93909490610f266041610e07565b9080926106c5565b90610e23565b989096610f8887610f7988938d7f00000000000000000000000000000000000000000000000000000000000000008d9192610f6d6100c2565b97889660208801610e69565b60208201810382520382610d43565b610f9a610f94826103a8565b91610d6c565b2061137c565b919091611402565b50929092610fbe610fb85f610ecf565b91610ecf565b0361105257610fe3610fde610fe992610fd96001879061076e565b610784565b610918565b1561056f565b61103657611008611002610ffc8461067c565b9261012c565b9161012c565b0361101a57611016906114c6565b9190565b5f6381e69d9b60e01b81528061103260048201610207565b0390fd5b5f632057875960e21b81528061104e60048201610207565b0390fd5b5f638baa579f60e01b81528061106a60048201610207565b0390fd5b60209181520190565b91906110918161108a816110969561106e565b8095610e43565b6103c0565b0190565b6110c06110cd95939492946110b660608401965f85019061012f565b602083019061012f565b6040818503910152611077565b90565b6110d990610609565b90565b6110e5906110d0565b90565b6110f190610625565b90565b60e01b90565b9061110d6111066100c2565b9283610d43565b565b67ffffffffffffffff81116111275760208091020190565b610d2f565b5f80fd5b67ffffffffffffffff811161114e5761114a6020916103c0565b0190565b610d2f565b9092919261116861116382611130565b6110fa565b9381855260208501908284011161118457611182926103b5565b565b61112c565b9080601f830112156111a7578160206111a493519101611153565b90565b610186565b9291906111c06111bb8261110f565b6110fa565b93818552602080860192028101918383116112175781905b8382106111e6575050505050565b815167ffffffffffffffff8111611212576020916112078784938701611189565b8152019101906111d8565b610186565b61018e565b9080601f8301121561123a57816020611237935191016111ac565b90565b610186565b9060208282031261126f575f82015167ffffffffffffffff811161126a57611267920161121c565b90565b6100d0565b6100cc565b9161129993919261128c60408201945f83019061012f565b6020818503910152611077565b90565b6112a46100c2565b3d5f823e3d90fd5b5f61131461130f611334938397966112c2610b99565b50818789926113078d6112f57febba031977237c34164ae38aea207dae3188fcbcb0dd739cf59bd404ee88da1395610631565b956112fe6100c2565b9485948561109a565b0390a26110dc565b6110e8565b9261133f63d691c9649195976113286100c2565b988997889687956110f4565b855260048501611274565b03925af1908115611377575f91611355575b5090565b61137191503d805f833e6113698183610d43565b81019061123f565b5f611351565b61129c565b611384610602565b507f19457468657265756d205369676e6564204d6573736167653a0a3332000000005f52601c52603c5f2090565b5f90565b5f90565b6113ce6113c96113d392610c87565b610606565b6100d4565b90565b6113df906113ba565b90565b6113f66113f16113fb92610283565b61079a565b61012c565b90565b5f90565b9161140b6113b2565b506114146113b6565b5061141d610602565b5061142982829061069a565b61143c6114366041610e07565b91610283565b145f1461148157509061147a91611451610602565b5061145a610602565b506114636113fe565b508035604060208301359201355f1a9091926115cc565b9192909190565b9150916114a161149c6114935f6113d6565b9360029561069a565b6113e2565b91929190565b6014816114ba6114c29360209695610ce3565b018092610e29565b0190565b61152a906115258161150b6114e46114df5f869061063d565b61066f565b916114fc6114f06100c2565b938492602084016114a7565b60208201810382520382610d43565b61151d611517826103a8565b91610d6c565b20915f61063d565b610d8a565b565b61153861153d91610653565b610b26565b90565b90565b61155761155261155c92611540565b610606565b610283565b90565b60ff1690565b61156e9061155f565b9052565b6115a76115ae9461159d606094989795611593608086019a5f87019061012f565b6020850190611565565b604083019061012f565b019061012f565b565b6115c46115bf6115c992610c87565b61079a565b61012c565b90565b9392936115d76113b2565b506115e06113b6565b506115e9610602565b506115f38561152c565b61162561161f7f7fffffffffffffffffffffffffffffff5d576e7357a4501ddfe92f46681b20a0611543565b91610283565b116116b25790611648602094955f9493929361163f6100c2565b94859485611572565b838052039060015afa156116ad576116605f5161079a565b8061167b6116756116705f6113d6565b6100df565b916100df565b14611691575f9161168b5f6115b0565b91929190565b5061169b5f6113d6565b6001916116a75f6115b0565b91929190565b61129c565b5050506116be5f6113d6565b906003929192919056fea26469706673582212206a84c5119f985bd3b252adeb034f399ab6d43999e8c46ee22bcfed24199bc58364736f6c634300081b0033","linkReferences":{}},"methodIdentifiers":{"decrementCount()":"b7f90f12","execute(address,bytes32,bytes32,bytes)":"c11e1bef","getCount()":"a87d942c","getSalt(address)":"59709c45","incrementCount()":"e5071b8e","isModuleType(uint256)":"ecd05961","onInstall(bytes)":"6d61fe70","onUninstall(bytes)":"8a91b0e3","resetCount()":"fd895292","setCount(uint256)":"d14e62b8"},"id":57}